S01B0000377365675F62617365645F696E7465727570742E737265635B
S11300000C942A000C9489000C9447000C9447002B
S11300100C9447000C9447000C9447000C94470040
S11300200C9447000C9447000C9447000C94470030
S11300300C9447000C9447000C9447000C94470020
S11300400C9447000C9447000C9447000C94470010
S11300500C94470011241FBECFE5D8E0DEBFCDBF0E
S113006010E0A0E6B0E0E2E6F1E002C005900D92F7
S1130070AA36B107D9F720E0AAE6B0E001C01D9284
S1130080AC36B207E1F70E9450000C94AF000C9418
S1130090000085E085BF8BB780648BBF789408959A
S11300A0CF93DF93CDB7DEB72A970FB6F894DEBFB0
S11300B00FBECDBF8AB3806F8ABB87B3866087BB10
S11300C00E94490088B3866088BB8AE0E0E6F0E0DD
S11300D0DE01119601900D928A95E1F780916A00F4
S11300E0813071F780916B00E1E0F0E0EC0FFD1FCF
S11300F0E80FF11D80818BBB2FE38DE093E021504D
S113010080409040E1F700C0000010926A00F8942B
S1130110D7CF1F920F920FB60F9211242F938F9364
S11301209F9381E080936A0080916B00893020F472
S11301308F5F80936B0002C010926B002FE38DE001
S113014093E0215080409040E1F700C000009F916F
S11301508F912F910F900FBE0F901F901895F894C8
S1050160FFCFCB
S10D016200102030405060708090BF
S9030000FC
