:100000000C942A000C945B000C943C000C943C0073
:100010000C943C000C943C000C943C000C943C0070
:100020000C943C000C943C000C943C000C943C0060
:100030000C943C000C943C000C943C000C943C0050
:100040000C943C000C943C000C943C000C943C0040
:100050000C943C0011241FBECFE5D8E0DEBFCDBF1D
:1000600020E0A0E6B0E001C01D92A136B207E1F7A2
:100070000E9444000C9477000C94000083E085BF3C
:1000800080E48BBF78940895A79A8B9A0E943E00D3
:1000900090E4939A809160008130D9F785B38058BD
:1000A00085BB9BBF10926000E7EAF1E63197F1F75C
:1000B00000C00000EECF1F920F920FB60F921124D6
:1000C0002F938F939F9381E0809360002FE38DE0C7
:1000D00093E0215080409040E1F700C000009F91E4
:1000E0008F912F910F900FBE0F901F901895F8943D
:0200F000FFCF40
:00000001FF
