:100000000C942A000C943F000C943F000C943F0089
:100010000C943F000C943F000C943F000C943F0064
:100020000C943F000C943F000C943F000C943F0054
:100030000C943F000C943F000C943F000C943F0044
:100040000C943F000C943F000C943F000C943F0034
:100050000C943F0011241FBECFE5D8E0DEBFCDBF1A
:1000600010E0A0E6B0E0E6EEF0E002C005900D92F0
:10007000AA36B107D9F70E9441000C9471000C9484
:100080000000CF93DF93CDB7DEB72A970FB6F89471
:10009000DEBF0FBECDBF8AB3806F8ABB87B38660D9
:1000A00087BB9E01255F3F4F88B3866088BB8AE08F
:1000B000E0E6F0E0DE01119601900D928A95E1F7FD
:1000C000FE01319681918BBB4FE784E89EE1415060
:1000D00080409040E1F700C00000E217F30791F77D
:0600E000E3CFF894FFCF0E
:0A00E6000010203040506070809040
:00000001FF
