S0130000554152545F4472697665722E737265630A
S11300000C942A000C943F000C943F000C943F0085
S11300100C943F000C943F000C943F000C943F0060
S11300200C943F000C943F000C943F000C943F0050
S11300300C943F000C943F000C943F000C943F0040
S11300400C943F000C943F000C943F000C943F0030
S11300500C943F0011241FBECFE5D8E0DEBFCDBF16
S113006010E0A0E6B0E0EAEDF0E002C005900D92E9
S1130070A436B107D9F70E9441000C946B000C948C
S11300800000D09A0E94520084E790E00E9467002A
S11300902FEF83ED90E3215080409040E1F700C0C2
S11300A00000F2CF87E689B98091630081110CC00A
S11300B080916400833041F480916500811104C013
S11300C086E880BD88E18AB9539A549A08955D9B65
S10D00D0FECF8CB90895F894FFCF19
S10700DA000300001B
S9030000FC
